:020000040800F2
:10000000C8070020CD0100089D0C0008390C00082D
:10001000990C0008150600083B17000800000000B6
:10002000000000000000000000000000950E000825
:10003000CB07000800000000250D0008A90F0008EC
:10004000E7010008E7010008E7010008E7010008F0
:10005000E7010008E7010008E7010008E7010008E0
:10006000CD070008E701000831080008E701000893
:10007000E7010008E7010008E7010008E7010008C0
:10008000E7010008E7010008E7010008E7010008B0
:10009000E7010008E7010008E7010008E7010008A0
:1000A000E7010008E7010008E7010008E701000890
:1000B000E7010008E7010008E7010008E701000880
:1000C000E7010008E7010008E7010008E701000870
:1000D000E701000819150008E7010008E70100081A
:1000E000E7010008E7010008E7010008E701000850
:1000F000E7010008E7010008E7010008E701000840
:10010000E7010008E7010008E7010008E70100082F
:10011000E7010008E7010008E7010008E70100081F
:10012000E7010008E7010008E7010008E70100080F
:1001300000F002F800F03AF80AA090E8000C8244BF
:100140008344AAF10107DA4501D100F02FF8AFF29C
:10015000090EBAE80F0013F0010F18BFFB1A43F0A5
:1001600001031847B4180000D4180000103A24BF47
:1001700078C878C1FAD8520724BF30C830C144BF0C
:1001800004680C607047000000230024002500264E
:10019000103A28BF78C1FBD8520728BF30C148BFEA
:1001A0000B6070471FB51FBD10B510BD00F033F8D0
:1001B0001146FFF7F7FF01F013FB00F051F803B40D
:1001C000FFF7F2FF03BC01F0BAFA000009488047CC
:1001D00009480047FEE7FEE7FEE7FEE7FEE7FEE729
:1001E000FEE7FEE7FEE7FEE704480549054A064B41
:1001F00070470000AD0F000831010008C801002061
:10020000C8070020C8030020C803002070477047BB
:10021000704770477047754600F02CF8AE460500F1
:100220006946534620F00700854618B020B5FFF711
:10023000DBFFBDE820404FF000064FF000074FF015
:1002400000084FF0000B21F00701AC46ACE8C009F4
:10025000ACE8C009ACE8C009ACE8C0098D467047FD
:1002600010B50446AFF300802046BDE81040FFF70C
:10027000A6BF0000004870476801002021B18268D5
:1002800042F00102826003E0826822F00102826093
:10029000704721B1826842F48072826003E0826814
:1002A00022F480728260704700B58BB0012108464D
:1002B00000F046FD134800F0BBF9134800901348C6
:1002C00001900020029010200390002004908020D4
:1002D00005904000069080000790202008900002C2
:1002E000099000200A906946064800F050FA012261
:1002F0000221044800F042FA0121024800F08CF982
:100300000BB000BD080002404C24014080000020DA
:1003100010B504461248844208D10121401500F06E
:100320003FFD0021601500F03BFD17E00D488442C1
:1003300008D10121001500F033FD0021201500F047
:100340002FFD0BE00848844208D10121C80300F0CA
:1003500027FD00214FF4004000F022FD10BD0000F9
:100360000024014000280140003C014001460020DB
:100370008A6802F004020AB1012000E00020704700
:10038000014600208A6802F008020AB1012000E05C
:100390000020704730B502460020002350680F4C03
:1003A00020400D790C6844EA052420435060906891
:1003B0000B4C2040D1E902542C434D7944EA4504CA
:1003C00020439060D06A20F470000C7C641EE4B27C
:1003D000234340EA0350D06230BD0000FFFEF0FF2F
:1003E000FDF7F1FFF0B504460D4600200021092D70
:1003F00011DDE068A5F10A0606EB4607072606FAB6
:1004000007F18843A5F10A0606EB460603FA06F152
:100410000843E0600CE0206905EB4507072606FA73
:1004200007F1884305EB450603FA06F1084320610E
:10043000072A0FDA606B561E06EB86071F2606FAA0
:1004400007F18843561E06EB860605FA06F10843B7
:10045000606322E00D2A0FDA206BD61F06EB8607B9
:100460001F2606FA07F18843D61F06EB860605FA13
:1004700006F10843206310E0E06AA2F10D0606EBE6
:1004800086071F2606FA07F18843A2F10D0606EB40
:10049000860605FA06F10843E062F0BD816841F086
:1004A00008018160704721B1826842F4A002826035
:1004B00003E0826822F4A00282607047816841F004
:1004C000040181607047000000B585B0012140F251
:1004D000012000F055FC4FF4004000F025FC4C4892
:1004E000FFF716FF0020009001208DF804008DF822
:1004F00005004FF4602002900020039010208DF83A
:10050000100069464248FFF745FF01214048FFF7C8
:10051000B5FE3F48FFF7C2FF00BF3D48FFF730FF81
:100520000028FAD13A48FFF7C9FF00BF3848FFF763
:100530001DFF0028FAD10723012200213448FFF7CC
:1005400051FF0723022201213148FFF74BFF072308
:10055000032202212E48FFF745FF0723042203212F
:100560002B48FFF73FFF0723052204212848FFF708
:1005700039FF0723062205212548FFF733FF07230C
:100580001A4606212248FFF72DFF072308221946A5
:100590001F48FFF727FF0723092208211C48FFF700
:1005A00021FF07230A2209211948FFF71BFF072310
:1005B0000B220A211648FFF715FF07230C220B21F7
:1005C0001348FFF70FFF07230D220C211048FFF7F8
:1005D00009FF07230E220D210D48FFF703FF072314
:1005E0000F220E210A48FFF7FDFE072310220F21DC
:1005F0000748FFF7F7FE01210548FFF754FFFFF713
:1006000053FE01210248FFF744FE05B000BD000083
:100610000024014000BFFEE721B1026842F0010260
:10062000026004E002684FF6FE731A4002607047F1
:1006300001684FF6FE7211400160002101604160C7
:100640008160C1604B49884208D14A4908394968EC
:1006500041F00F01474A083A51608AE04549143198
:10066000884208D143490839496841F0F001414ABC
:10067000083A51607DE03F492831884208D13D4920
:100680000839496841F470613A4A083A516070E0AB
:1006900038493C31884208D136490839496841F423
:1006A0007041344A083A516063E03249503188421F
:1006B00008D130490839496841F470212D4A083A77
:1006C000516056E02B496431884208D129490839E4
:1006D000496841F47001274A083A516049E02549C8
:1006E0007831884208D123490839496841F070615E
:1006F000204A083A51603CE01F49884206D1011F58
:10070000096841F00F01021F116032E01A491431EB
:10071000884208D11849091F096841F0F001164ABA
:10072000121F116025E014492831884208D112496E
:10073000091F096841F470610F4A121F116018E027
:100740000D493C31884208D10B49091F096841F421
:100750007041094A121F11600BE00749503188426D
:1007600007D10549091F096841F47021024A121F87
:100770001160704708000240080402401AB1036883
:100780000B43036002E003688B430360704710B5BE
:100790000022026847F6F0739A430C6A8B68234381
:1007A0000C6923434C6923438C692343CC6923435D
:1007B0004C6A23438C6A23431A430260CB6843602C
:1007C0000B6883604B68C36010BD704710B5042090
:1007D00000F0AAF818B31448006801281FD14FF49C
:1007E0007A71422001F00CF84FF4C87000F0CCFF91
:1007F0000E48006850B94FF4FA724FF496615220D7
:1008000001F054F801200949086008E04FF4FA7239
:1008100051004C2001F04AF80020044908600420EF
:1008200000F07CF810BD0000088121421800002073
:1008300010B5102000F078F818B3144800680128AB
:100840001FD14FF47A71422000F0DAFF4FF4C870E4
:1008500000F09AFF0E48006848B94FF4FA72510050
:10086000522001F023F801200949086009E04FF403
:10087000FA724FF496614C2001F018F800200449F8
:100880000860102000F04AF810BD000010812142DD
:100890001C0000200EB50121084600F071FA042169
:1008A000012000F09FF81020019000208DF8080032
:1008B00008208DF8090001208DF80A0001A800F039
:1008C00047F80A208DF8000002208DF8010003206F
:1008D0008DF8020001208DF80300684600F0E0F971
:1008E0000221012000F07EF80420019000208DF804
:1008F000080008208DF8090001A800F029F8082058
:100900008DF8000002208DF801008DF80200012012
:100910008DF80300684600F0C3F90EBD0149086078
:100920007047000014040140014600200022074BDC
:100930001B6803EA0102054B14331B680B4013B11B
:100940000AB1012000E000207047000000040140CF
:10095000002123498279002A3AD00A4612680368A6
:100960009A430B461A600A1D126803689A430B1DCE
:100970001A60027911440A6803681A430A60184A27
:100980000832126803689A43154B08331A601A1D1F
:10099000126803689A43124B0C331A604279102A8A
:1009A0000ED11A1F126803681A430D4B08331A60E0
:1009B0001A1D126803681A43094B0C331A600DE0C4
:1009C0000749427911440A6803681A430A6005E03E
:1009D000027911440A6803689A430A60704700006C
:1009E0000004014030B500228B071C0F0F2303FACF
:1009F00004F20B4B8C1053F824309343084C8D10A9
:100A000044F8253023468C1053F824308C07240FEB
:100A100000FA04F42343024C8D1044F8253030BD15
:100A2000080001402DE9F041024600250026002083
:100A300000230024002791F803C00CF00F0591F863
:100A400003C00CF0100CBCF1000F03D091F802C0F1
:100A50004CEA050591F800C0BCF1000F31D01468D4
:100A600000202BE04FF0010C0CFA00F3B1F800C0AD
:100A70000CEA03069E4220D183004FF00F0C0CFAC3
:100A800003F7BC4305FA03FC4CEA040491F803C0E5
:100A9000BCF1280F06D14FF0010C0CFA00FCC2F893
:100AA00014C00AE091F803C0BCF1480F05D14FF023
:100AB000010C0CFA00FCC2F810C0401C0828D1D36D
:100AC0001460B1F800C0BCF1FF0F34DD54680020A1
:100AD0002EE000F1080C4FF0010808FA0CF3B1F811
:100AE00000C00CEA03069E4221D183004FF00F0C98
:100AF0000CFA03F7BC4305FA03FC4CEA040491F832
:100B000003C0BCF1280F05D100F1080C08FA0CF85D
:100B1000C2F8148091F803C0BCF1480F07D100F16E
:100B2000080C4FF0010808FA0CF8C2F81080401CBD
:100B30000828CED35460BDE8F0814161704701615F
:100B40007047000008B501211C2000F019F90320AE
:100B50008DF8020000208DF80300FF20ADF80000A2
:100B600069463248FFF75EFF0320ADF80000694692
:100B70002F48FFF757FF3F20ADF8000069462D488A
:100B8000FFF750FF18208DF803004FF4E070ADF828
:100B9000000069462648FFF745FF18208DF803003E
:100BA0004FF48070ADF8000069462048FFF73AFF27
:100BB00010208DF803004FF47070ADF80000694606
:100BC0001C48FFF72FFF40211A48FFF7B6FF80218E
:100BD0001848FFF7B2FF4FF480711648FFF7ADFFDA
:100BE0004FF400711348FFF7A8FF1420ADF8000080
:100BF00048208DF8030069460D48FFF713FF482091
:100C00008DF803004FF40040ADF800006946074836
:100C1000FFF708FF48208DF803002020ADF8000002
:100C200069460448FFF7FEFE08BD000000080140C9
:100C3000000C01400010014000BFFEE710B54FF46A
:100C4000A06000F065F8FFF77DFFFFF73DFC002195
:100C500040F60F6000F034FA472144F61F6000F0C0
:100C6000D5F94FF4E13000F087FE00F06BFDFFF79F
:100C700011FE0848006820F0040006490860084694
:100C8000006820F0100008604FF47A7000F07CFDDE
:100C900010BD00000004014000BFFEE770470000E7
:100CA00070B5002100230F22C47804B3154C2468CA
:100CB00004F4E064C4F5E064210AC1F10403CA400D
:100CC000447804FA03F184781440214309010E4C5E
:100CD0000678A155047804F01F050124AC4005787E
:100CE0006D11AD0005F1E025C5F8004109E004787B
:100CF00004F01F050124AC40044D0678761145F838
:100D0000264070BD0CED00E000E400E080E100E072
:100D100002490143024A1160704700000000FA05D1
:100D20000CED00E07047000001460020034A5068C7
:100D300020F440400843506070470000001002401B
:100D400029B1064A52690243044B5A6104E0034A3E
:100D500052698243014B5A61704700000010024003
:100D600029B1064AD2690243044BDA6104E0034A1E
:100D7000D2698243014BDA617047000000100240E3
:100D800029B1064A92690243044B9A6104E0034A7E
:100D900092698243014B9A61704700000010024043
:100DA00029B1064AD2680243044BDA6004E0034AE0
:100DB000D2688243014BDA607047000000100240A5
:100DC00030B500210022002400232D4D6D6805F070
:100DD0000C0121B1042905D0082923D105E0294DB2
:100DE000056022E0274D05601FE0254D6D6805F484
:100DF0007012234D6D6805F48034022505EB924294
:100E00001CB9214D554305600BE01D4D6D6805F47F
:100E100000351DB11C4D5543056002E0194D554389
:100E2000056002E0174D056000BF00BF144D6D68FE
:100E300005F0F0010909154D6B5C0568DD40456062
:100E40000F4D6D6805F4E061090A104D6B5C456853
:100E5000DD4085600A4D6D6805F46051C90A0B4D8F
:100E60006B5C4568DD40C560054D6D6805F440412B
:100E7000890B074D6B5CC568B5FBF3F5056130BDAB
:100E80000010024000127A0000093D0020000020FE
:100E900030000020704710B500F002F810BD0000CF
:100EA0000CB50020019000903348006840F4803079
:100EB0003149086000BF3048006800F400300090FD
:100EC0000198401C0190009818B90198B0F5A06FE6
:100ED000F1D12948006800F4003010B101200090E1
:100EE00001E0002000900098012843D123480068C9
:100EF00040F01000214908600846006820F0030017
:100F000008600846006840F0020008601A4840681F
:100F1000194948600846406848600846406840F4FF
:100F2000806048600846406820F47C1048600846AD
:100F3000406840F4E81048600846006840F080705F
:100F4000086000BF0C48006800F000700028F9D06D
:100F50000948406820F00300074948600846406897
:100F600040F00200486000BF0348406800F00C00F9
:100F70000828F9D10CBD00000010024000200240FA
:100F8000042808D14FF0E021096941F004014FF035
:100F9000E022116107E04FF0E021096921F004012E
:100FA0004FF0E022116170477047000010B5134800
:100FB000006840F001001149086008464068104987
:100FC00008400E494860084600680E4908400B4931
:100FD00008600846006820F48020086008464068E1
:100FE00020F4FE0048604FF41F008860FFF753FFB5
:100FF0004FF000600449086010BD0000001002407E
:101000000000FFF8FFFFF6FE08ED00E030B587B006
:1010100005460C460121C802FFF7B2FE012104205B
:10102000FFF7AEFEADF81450ADF810400020ADF85B
:101030001600ADF8120004A9204800F01BFA702039
:10104000ADF800000120ADF8020040F28330ADF8A9
:1010500006000220ADF80800C001ADF80C0069469A
:10106000164800F0ABF80821144800F0F3F8694680
:10107000124800F0F9F80821104800F047F96946D5
:101080000E4800F051F908210C4800F09DF969461E
:101090000A4800F0A3F90821084800F0DDF9012111
:1010A000064800F07BF80121044800F05FF80121B8
:1010B000024800F067F807B030BD0000002C014086
:1010C00030B587B005460C4601210420FFF748FEE5
:1010D00001210820FFF754FEADF81450ADF8104080
:1010E0000020ADF81600ADF8120004A91E4800F06B
:1010F000C1F96020ADF800000120ADF8020040F217
:101100008330ADF806000020ADF8080069461648A7
:1011100000F054F80821144800F09CF86946124881
:1011200000F0A2F80821104800F0F0F869460E48D7
:1011300000F0FAF808210C4800F046F969460A4820
:1011400000F04CF90821084800F086F90121064812
:1011500000F024F80121044800F008F801210248B9
:1011600000F010F807B030BD0008004021B102883F
:1011700042F08002028004E002884FF67F731A403A
:101180000280704721B1028842F00102028004E02F
:1011900002884FF6FE731A400280704731B1B0F8F2
:1011A000442042F40042A0F8442005E0B0F8442076
:1011B000C2F30E02A0F844207047000070B500246E
:1011C00000220023058C4FF6FE7635400584028C04
:1011D0008388048B4FF68F752C40B51E2C400D88EC
:1011E0002C43751E2A400D892A434D882A43144DED
:1011F000A8420BD0134DA84208D0134DA84205D0E9
:10120000124DA84202D0124DA84213D14FF6F775E5
:101210002A404D892A434FF6FB752A408D882A4380
:101220004FF6FF652B404FF6FF552B408D892B4322
:10123000CD892B4383800483CD888586028470BD4D
:10124000002C0140003401400040014000440140B6
:10125000004801400A460021018B4FF6F773194000
:10126000114301837047000070B500240022002361
:10127000058C4FF6EF7635400584028C8388048B0D
:1012800048F6FF752C404FF6FF452C400D884FF671
:10129000FF7606EA05252C434FF6DF752A400D89B7
:1012A00006EA05152A434D8806EA05152A43154D19
:1012B000A84202D0144DA8421DD14FF67F752A4096
:1012C0004D894FF6FF7606EA05152A434FF6BF759E
:1012D0002A408D8806EA05152A434FF6FF352B4034
:1012E0004FF2FF752B408D8906EA85052B43CD898A
:1012F00006EA85052B4383800483CD880587028415
:1013000070BD0000002C0140003401400A4600215D
:10131000018B4FF2FF7319404FF6FF7303EA02236C
:10132000194301837047000070B500240022002398
:10133000058C4FF6FF6635400584028C8388848BCC
:101340004FF68F752C404FF6FC752C400D882C43C2
:101350004FF6FF552A400D894FF6FF7606EA052520
:101360002A434D8806EA05252A43154DA84202D096
:10137000144DA8421DD14FF2FF752A404D894FF6FA
:10138000FF7606EA05252A434FF6FF352A408D8869
:1013900006EA05252A434EF6FF752B404DF6FF75EC
:1013A0002B408D8906EA05152B43CD8906EA0515E4
:1013B0002B4383808483CD888587028470BD0000A1
:1013C000002C0140003401400A460021818B4FF679
:1013D000F7731940114381837047000070B50022F4
:1013E00000230024058C4EF6FF7635400584038CDF
:1013F0008488828B48F6FF752A404FF6FF452A40C5
:101400000D884FF6FF7606EA05252A434DF6FF754F
:101410002B400D8906EA05352B434D8806EA053534
:101420002B430B4DA84202D00A4DA84208D14BF6DF
:10143000FF752C408D894FF6FF7606EA85152C4303
:1014400084808283CD88A0F84050038470BD000062
:10145000002C0140003401400A460021818B4FF2EC
:10146000FF7319404FF6FF7303EA02231943818388
:1014700070470000002202881D4B98420ED01D4B81
:1014800098420BD0B0F1804F08D01B4B984205D04A
:101490001A4B984202D01A4B984204D14FF68F73E0
:1014A0001A404B881A43174B984207D0164B984264
:1014B00004D04FF6FF431A40CB881A4302808B8832
:1014C00083850B8803850A4B98420BD0094B9842C1
:1014D00008D00E4B984205D00D4B984202D00D4BD0
:1014E000984201D10B7A0386012383827047000062
:1014F000002C01400034014000040040000800407E
:10150000000C00400010004000140040004001406A
:10151000004401400048014010B540F225511D48EB
:1015200000F04AF810B31B4800F002F9C4B21A48A0
:10153000008800F40040C8B91748008800F48040D3
:1015400060B10A2C03D000201349088020E0124823
:10155000008840F400401049088019E00D2C06D1A5
:101560000D48008840F480400B49088010E00A488C
:101570000088C0F30D0009490C5407480088401C3E
:101580000549088008460088C72801DD002008803A
:1015900010BD0000003801403C000020A0000020E9
:1015A00021B1828942F40052828104E082894DF6A1
:1015B000FF731A408281704770B5024600240023F1
:1015C0000025002040F66A16B14200D100BFC1F3E9
:1015D000421501F01F03012606FA03F3012D02D183
:1015E0009689334006E0022D02D1168A334001E08D
:1015F000968A33400C12012606FA04F41688344009
:1016000013B10CB1012000E0002070BDF0B503461D
:10161000002400260025002040F66A17B94200D1B8
:1016200000BF1846C1F3421401F01F06012707FA54
:1016300006F5012C01D10C3004E0022C01D1103050
:1016400000E014301AB107682F43076002E0076812
:10165000AF430760F0BD00002DE9F04786B00546B6
:101660000E460024A24600BFA1460027B08900B163
:1016700000BF2F462C8A4CF6FF700440F0880443CC
:101680002C82AC894EF6F3100440B08831890843AF
:10169000718908430443AC81AC8A4FF6FF40044093
:1016A000B0890443AC8201A8FFF78AFB1F48874238
:1016B00002D1DDF810A001E0DDF80CA0A88900F44B
:1016C000004040B10AEBCA0000EB0A103168490043
:1016D000B0FBF1F807E00AEBCA0000EB0A10316832
:1016E0008900B0FBF1F86420B8FBF0F00401200998
:1016F000642101FB1089A88900F4004040B1322028
:1017000000EBC900B0FBF1F000F00700044308E073
:10171000322000EB09106421B0FBF1F000F00F0063
:1017200004432C8106B0BDE8F0870000003801407A
:1017300001468888C0F30800704700BFFEE700BF7D
:101740007047000010B56FF00400FFF719FC0A485D
:1017500000680A49B0FBF1F00949087008460078B2
:1017600000EB4001C1EBC0104FF6FF7101EAC00071
:101770000449088010BD00000000002000127A001B
:1017800034000020360000200146114A12884A43E6
:101790004FF0E0235A6100229A611A46126942F022
:1017A00001021A6100BF4FF0E022106900F001024F
:1017B0001AB100F48032002AF5D04FF0E02212690D
:1017C00022F001024FF0E0231A6100229A61704773
:1017D000360000200149088070470000342C014089
:1017E000FFF72CFA40F2E730FFF7F4FF40F2DC504D
:1017F000FFF7CAFF03E040F21450FFF7EBFFFAE7F0
:1018000070B505460C46422D1BD0462D02D0532DF7
:1018100046D12DE040212348FFF791F9802121484E
:10182000FFF78BF94FF480711E48FFF788F94FF4EA
:1018300000711C48FFF781F91B480480001D0480DB
:101840002EE040211748FFF778F980211548FFF76F
:1018500076F94FF480711348FFF76FF94FF4007178
:101860001048FFF76CF910480480001D048017E051
:1018700040210C48FFF761F980210A48FFF75DF924
:101880004FF480710748FFF758F94FF4007105488D
:10189000FFF753F9002004490880091D088000BFA4
:1018A00000BF70BD001001403408004070B506460E
:1018B0000C46154600215320FFF7A2FF6420FFF7D6
:1018C00063FF4C2E38D04F2E02D0522E4ED119E04D
:1018D00040212748FFF733F980212548FFF72DF9EC
:1018E0004FF480712248FFF728F94FF40071204827
:1018F000FFF725F91F480480001D04802846FFF7E4
:1019000043FF33E040211A48FFF719F980211848B6
:10191000FFF713F94FF480711548FFF70EF94FF4F4
:1019200000711348FFF70BF912480480001D048072
:101930002846FFF729FF19E040210D48FFF7FDF881
:1019400080210B48FFF7FBF84FF480710848FFF740
:10195000F6F84FF400710648FFF7EFF805480480E9
:10196000001D04802846FFF70FFF00BF00BF70BDB9
:10197000001001403408004010B586B00446012133
:1019800044F20400FFF7FCF94FF40070ADF81400C6
:1019900003208DF8160018208DF8170005A91C48A3
:1019A000FFF740F84FF48060ADF8140004208DF884
:1019B000170005A91648FFF735F825208DF8000017
:1019C00003208DF801008DF8020001208DF803003E
:1019D0006846FFF765F901940020ADF80800ADF8FE
:1019E0000A00ADF80C00ADF810000C20ADF80E00A8
:1019F00001A90848FFF730FE012240F225510548B1
:101A0000FFF704FE01210348FFF7CAFD06B010BD31
:101A10000008014000380140381A0008000000208A
:101A2000400000006C010008781A00084000002007
:101A3000880700008801000800A24A040000000096
:101A4000000000000102030406070809000000006E
:101A5000000000000000000000000000010203047C
:101A6000010203040607080902040608000000003A
:081A700000000000000000006E
:0400000508000131BD
:00000001FF
